{
  "_format": "hh-sol-artifact-1",
  "contractName": "CreditCertificate",
  "sourceName": "contracts/CreditCerificate.sol",
  "abi": [
    {
      "inputs": [],
      "stateMutability": "nonpayable",
      "type": "constructor"
    },
    {
      "anonymous": false,
      "inputs": [
        {
          "indexed": true,
          "internalType": "address",
          "name": "owner",
          "type": "address"
        },
        {
          "indexed": true,
          "internalType": "address",
          "name": "approved",
          "type": "address"
        },
        {
          "indexed": true,
          "internalType": "uint256",
          "name": "tokenId",
          "type": "uint256"
        }
      ],
      "name": "Approval",
      "type": "event"
    },
    {
      "anonymous": false,
      "inputs": [
        {
          "indexed": true,
          "internalType": "address",
          "name": "owner",
          "type": "address"
        },
        {
          "indexed": true,
          "internalType": "address",
          "name": "operator",
          "type": "address"
        },
        {
          "indexed": false,
          "internalType": "bool",
          "name": "approved",
          "type": "bool"
        }
      ],
      "name": "ApprovalForAll",
      "type": "event"
    },
    {
      "anonymous": false,
      "inputs": [
        {
          "indexed": true,
          "internalType": "address",
          "name": "to",
          "type": "address"
        },
        {
          "indexed": true,
          "internalType": "uint256",
          "name": "tokenId",
          "type": "uint256"
        }
      ],
      "name": "Attest",
      "type": "event"
    },
    {
      "anonymous": false,
      "inputs": [
        {
          "indexed": true,
          "internalType": "address",
          "name": "previousOwner",
          "type": "address"
        },
        {
          "indexed": true,
          "internalType": "address",
          "name": "newOwner",
          "type": "address"
        }
      ],
      "name": "OwnershipTransferred",
      "type": "event"
    },
    {
      "anonymous": false,
      "inputs": [
        {
          "indexed": true,
          "internalType": "address",
          "name": "to",
          "type": "address"
        },
        {
          "indexed": true,
          "internalType": "uint256",
          "name": "tokenId",
          "type": "uint256"
        }
      ],
      "name": "Revoke",
      "type": "event"
    },
    {
      "anonymous": false,
      "inputs": [
        {
          "indexed": true,
          "internalType": "address",
          "name": "from",
          "type": "address"
        },
        {
          "indexed": true,
          "internalType": "address",
          "name": "to",
          "type": "address"
        },
        {
          "indexed": true,
          "internalType": "uint256",
          "name": "tokenId",
          "type": "uint256"
        }
      ],
      "name": "Transfer",
      "type": "event"
    },
    {
      "inputs": [
        {
          "internalType": "address",
          "name": "to",
          "type": "address"
        },
        {
          "internalType": "uint256",
          "name": "tokenId",
          "type": "uint256"
        }
      ],
      "name": "approve",
      "outputs": [],
      "stateMutability": "nonpayable",
      "type": "function"
    },
    {
      "inputs": [
        {
          "internalType": "address",
          "name": "owner",
          "type": "address"
        }
      ],
      "name": "balanceOf",
      "outputs": [
        {
          "internalType": "uint256",
          "name": "",
          "type": "uint256"
        }
      ],
      "stateMutability": "view",
      "type": "function"
    },
    {
      "inputs": [
        {
          "internalType": "uint256",
          "name": "tokenId",
          "type": "uint256"
        }
      ],
      "name": "getApproved",
      "outputs": [
        {
          "internalType": "address",
          "name": "",
          "type": "address"
        }
      ],
      "stateMutability": "view",
      "type": "function"
    },
    {
      "inputs": [
        {
          "internalType": "address",
          "name": "owner",
          "type": "address"
        },
        {
          "internalType": "address",
          "name": "operator",
          "type": "address"
        }
      ],
      "name": "isApprovedForAll",
      "outputs": [
        {
          "internalType": "bool",
          "name": "",
          "type": "bool"
        }
      ],
      "stateMutability": "view",
      "type": "function"
    },
    {
      "inputs": [
        {
          "internalType": "uint256",
          "name": "_amount",
          "type": "uint256"
        },
        {
          "internalType": "string",
          "name": "_tokenUri",
          "type": "string"
        },
        {
          "internalType": "string",
          "name": "_name",
          "type": "string"
        }
      ],
      "name": "lockFunds",
      "outputs": [],
      "stateMutability": "payable",
      "type": "function"
    },
    {
      "inputs": [
        {
          "internalType": "address",
          "name": "",
          "type": "address"
        }
      ],
      "name": "locked",
      "outputs": [
        {
          "internalType": "address",
          "name": "holder",
          "type": "address"
        },
        {
          "internalType": "uint256",
          "name": "amount",
          "type": "uint256"
        },
        {
          "internalType": "uint256",
          "name": "tokenId",
          "type": "uint256"
        },
        {
          "internalType": "string",
          "name": "name",
          "type": "string"
        }
      ],
      "stateMutability": "view",
      "type": "function"
    },
    {
      "inputs": [],
      "name": "name",
      "outputs": [
        {
          "internalType": "string",
          "name": "",
          "type": "string"
        }
      ],
      "stateMutability": "view",
      "type": "function"
    },
    {
      "inputs": [],
      "name": "owner",
      "outputs": [
        {
          "internalType": "address",
          "name": "",
          "type": "address"
        }
      ],
      "stateMutability": "view",
      "type": "function"
    },
    {
      "inputs": [
        {
          "internalType": "uint256",
          "name": "tokenId",
          "type": "uint256"
        }
      ],
      "name": "ownerOf",
      "outputs": [
        {
          "internalType": "address",
          "name": "",
          "type": "address"
        }
      ],
      "stateMutability": "view",
      "type": "function"
    },
    {
      "inputs": [],
      "name": "renounceOwnership",
      "outputs": [],
      "stateMutability": "nonpayable",
      "type": "function"
    },
    {
      "inputs": [
        {
          "internalType": "address",
          "name": "from",
          "type": "address"
        },
        {
          "internalType": "address",
          "name": "to",
          "type": "address"
        },
        {
          "internalType": "uint256",
          "name": "tokenId",
          "type": "uint256"
        }
      ],
      "name": "safeTransferFrom",
      "outputs": [],
      "stateMutability": "nonpayable",
      "type": "function"
    },
    {
      "inputs": [
        {
          "internalType": "address",
          "name": "from",
          "type": "address"
        },
        {
          "internalType": "address",
          "name": "to",
          "type": "address"
        },
        {
          "internalType": "uint256",
          "name": "tokenId",
          "type": "uint256"
        },
        {
          "internalType": "bytes",
          "name": "data",
          "type": "bytes"
        }
      ],
      "name": "safeTransferFrom",
      "outputs": [],
      "stateMutability": "nonpayable",
      "type": "function"
    },
    {
      "inputs": [
        {
          "internalType": "address",
          "name": "operator",
          "type": "address"
        },
        {
          "internalType": "bool",
          "name": "approved",
          "type": "bool"
        }
      ],
      "name": "setApprovalForAll",
      "outputs": [],
      "stateMutability": "nonpayable",
      "type": "function"
    },
    {
      "inputs": [
        {
          "internalType": "bytes4",
          "name": "interfaceId",
          "type": "bytes4"
        }
      ],
      "name": "supportsInterface",
      "outputs": [
        {
          "internalType": "bool",
          "name": "",
          "type": "bool"
        }
      ],
      "stateMutability": "view",
      "type": "function"
    },
    {
      "inputs": [],
      "name": "symbol",
      "outputs": [
        {
          "internalType": "string",
          "name": "",
          "type": "string"
        }
      ],
      "stateMutability": "view",
      "type": "function"
    },
    {
      "inputs": [
        {
          "internalType": "uint256",
          "name": "tokenId",
          "type": "uint256"
        }
      ],
      "name": "tokenURI",
      "outputs": [
        {
          "internalType": "string",
          "name": "",
          "type": "string"
        }
      ],
      "stateMutability": "view",
      "type": "function"
    },
    {
      "inputs": [
        {
          "internalType": "address",
          "name": "from",
          "type": "address"
        },
        {
          "internalType": "address",
          "name": "to",
          "type": "address"
        },
        {
          "internalType": "uint256",
          "name": "tokenId",
          "type": "uint256"
        }
      ],
      "name": "transferFrom",
      "outputs": [],
      "stateMutability": "nonpayable",
      "type": "function"
    },
    {
      "inputs": [
        {
          "internalType": "address",
          "name": "newOwner",
          "type": "address"
        }
      ],
      "name": "transferOwnership",
      "outputs": [],
      "stateMutability": "nonpayable",
      "type": "function"
    },
    {
      "inputs": [
        {
          "internalType": "address",
          "name": "_beneficiary",
          "type": "address"
        }
      ],
      "name": "unLock",
      "outputs": [],
      "stateMutability": "payable",
      "type": "function"
    },
    {
      "stateMutability": "payable",
      "type": "receive"
    }
  ],
  "bytecode": "0x60806040523480156200001157600080fd5b506040518060400160405280601881526020017f43726564697420427572656120436572746966696361746500000000000000008152506040518060400160405280600481526020017f4342435400000000000000000000000000000000000000000000000000000000815250816000908051906020019062000096929190620001a6565b508060019080519060200190620000af929190620001a6565b505050620000d2620000c6620000d860201b60201c565b620000e060201b60201c565b620002bb565b600033905090565b6000600760009054906101000a900473ffffffffffffffffffffffffffffffffffffffff16905081600760006101000a81548173ffffffffffffffffffffffffffffffffffffffff021916908373ffffffffffffffffffffffffffffffffffffffff1602179055508173ffffffffffffffffffffffffffffffffffffffff168173ffffffffffffffffffffffffffffffffffffffff167f8be0079c531659141344cd1fd0a4f28419497f9722a3daafe3b4186f6b6457e060405160405180910390a35050565b828054620001b49062000285565b90600052602060002090601f016020900481019282620001d8576000855562000224565b82601f10620001f357805160ff191683800117855562000224565b8280016001018555821562000224579182015b828111156200022357825182559160200191906001019062000206565b5b50905062000233919062000237565b5090565b5b808211156200025257600081600090555060010162000238565b5090565b7f4e487b7100000000000000000000000000000000000000000000000000000000600052602260045260246000fd5b600060028204905060018216806200029e57607f821691505b60208210811415620002b557620002b462000256565b5b50919050565b61399180620002cb6000396000f3fe6080604052600436106101185760003560e01c806376e6d2b4116100a0578063b88d4fde11610064578063b88d4fde1461038c578063c87b56dd146103b5578063cbf9fe5f146103f2578063e985e9c514610432578063f2fde38b1461046f5761011f565b806376e6d2b4146102d557806386d5a6cf146102f15780638da5cb5b1461030d57806395d89b4114610338578063a22cb465146103635761011f565b806323b872dd116100e757806323b872dd146101f257806342842e0e1461021b5780636352211e1461024457806370a0823114610281578063715018a6146102be5761011f565b806301ffc9a71461012457806306fdde0314610161578063081812fc1461018c578063095ea7b3146101c95761011f565b3661011f57005b600080fd5b34801561013057600080fd5b5061014b60048036038101906101469190612580565b610498565b60405161015891906125c8565b60405180910390f35b34801561016d57600080fd5b5061017661057a565b604051610183919061267c565b60405180910390f35b34801561019857600080fd5b506101b360048036038101906101ae91906126d4565b61060c565b6040516101c09190612742565b60405180910390f35b3480156101d557600080fd5b506101f060048036038101906101eb9190612789565b610652565b005b3480156101fe57600080fd5b50610219600480360381019061021491906127c9565b61076a565b005b34801561022757600080fd5b50610242600480360381019061023d91906127c9565b6107ca565b005b34801561025057600080fd5b5061026b600480360381019061026691906126d4565b6107ea565b6040516102789190612742565b60405180910390f35b34801561028d57600080fd5b506102a860048036038101906102a3919061281c565b61089c565b6040516102b59190612858565b60405180910390f35b3480156102ca57600080fd5b506102d3610954565b005b6102ef60048036038101906102ea919061281c565b610968565b005b61030b600480360381019061030691906129a8565b610bc1565b005b34801561031957600080fd5b50610322610db8565b60405161032f9190612742565b60405180910390f35b34801561034457600080fd5b5061034d610de2565b60405161035a919061267c565b60405180910390f35b34801561036f57600080fd5b5061038a60048036038101906103859190612a5f565b610e74565b005b34801561039857600080fd5b506103b360048036038101906103ae9190612b40565b610e8a565b005b3480156103c157600080fd5b506103dc60048036038101906103d791906126d4565b610eec565b6040516103e9919061267c565b60405180910390f35b3480156103fe57600080fd5b506104196004803603810190610414919061281c565b610efe565b6040516104299493929190612bc3565b60405180910390f35b34801561043e57600080fd5b5061045960048036038101906104549190612c0f565b610fd6565b60405161046691906125c8565b60405180910390f35b34801561047b57600080fd5b506104966004803603810190610491919061281c565b61106a565b005b60007f80ac58cd000000000000000000000000000000000000000000000000000000007bffffffffffffffffffffffffffffffffffffffffffffffffffffffff1916827bffffffffffffffffffffffffffffffffffffffffffffffffffffffff1916148061056357507f5b5e139f000000000000000000000000000000000000000000000000000000007bffffffffffffffffffffffffffffffffffffffffffffffffffffffff1916827bffffffffffffffffffffffffffffffffffffffffffffffffffffffff1916145b806105735750610572826110ee565b5b9050919050565b60606000805461058990612c7e565b80601f01602080910402602001604051908101604052809291908181526020018280546105b590612c7e565b80156106025780601f106105d757610100808354040283529160200191610602565b820191906000526020600020905b8154815290600101906020018083116105e557829003601f168201915b5050505050905090565b600061061782611158565b6004600083815260200190815260200160002060009054906101000a900473ffffffffffffffffffffffffffffffffffffffff169050919050565b600061065d826107ea565b90508073ffffffffffffffffffffffffffffffffffffffff168373ffffffffffffffffffffffffffffffffffffffff1614156106ce576040517f08c379a00000000000000000000000000000000000000000000000000000000081526004016106c590612d22565b60405180910390fd5b8073ffffffffffffffffffffffffffffffffffffffff166106ed6111a3565b73ffffffffffffffffffffffffffffffffffffffff16148061071c575061071b816107166111a3565b610fd6565b5b61075b576040517f08c379a000000000000000000000000000000000000000000000000000000000815260040161075290612db4565b60405180910390fd5b61076583836111ab565b505050565b61077b6107756111a3565b82611264565b6107ba576040517f08c379a00000000000000000000000000000000000000000000000000000000081526004016107b190612e46565b60405180910390fd5b6107c58383836112f9565b505050565b6107e583838360405180602001604052806000815250610e8a565b505050565b6000806002600084815260200190815260200160002060009054906101000a900473ffffffffffffffffffffffffffffffffffffffff169050600073ffffffffffffffffffffffffffffffffffffffff168173ffffffffffffffffffffffffffffffffffffffff161415610893576040517f08c379a000000000000000000000000000000000000000000000000000000000815260040161088a90612eb2565b60405180910390fd5b80915050919050565b60008073ffffffffffffffffffffffffffffffffffffffff168273ffffffffffffffffffffffffffffffffffffffff16141561090d576040517f08c379a000000000000000000000000000000000000000000000000000000000815260040161090490612f44565b60405180910390fd5b600360008373ffffffffffffffffffffffffffffffffffffffff1673ffffffffffffffffffffffffffffffffffffffff168152602001908152602001600020549050919050565b61095c611560565b61096660006115de565b565b8073ffffffffffffffffffffffffffffffffffffffff163373ffffffffffffffffffffffffffffffffffffffff16146109d6576040517f08c379a00000000000000000000000000000000000000000000000000000000081526004016109cd90612fb0565b60405180910390fd5b6000600960008373ffffffffffffffffffffffffffffffffffffffff1673ffffffffffffffffffffffffffffffffffffffff1681526020019081526020016000206001015411610a5b576040517f08c379a0000000000000000000000000000000000000000000000000000000008152600401610a529061301c565b60405180910390fd5b60008190508073ffffffffffffffffffffffffffffffffffffffff166108fc600960008573ffffffffffffffffffffffffffffffffffffffff1673ffffffffffffffffffffffffffffffffffffffff168152602001908152602001600020600101549081150290604051600060405180830381858888f19350505050158015610ae8573d6000803e3d6000fd5b50610b34600960008473ffffffffffffffffffffffffffffffffffffffff1673ffffffffffffffffffffffffffffffffffffffff168152602001908152602001600020600201546116a4565b600960008373ffffffffffffffffffffffffffffffffffffffff1673ffffffffffffffffffffffffffffffffffffffff168152602001908152602001600020600080820160006101000a81549073ffffffffffffffffffffffffffffffffffffffff021916905560018201600090556002820160009055600382016000610bbb9190612431565b50505050565b600073ffffffffffffffffffffffffffffffffffffffff16600960003373ffffffffffffffffffffffffffffffffffffffff1673ffffffffffffffffffffffffffffffffffffffff16815260200190815260200160002060000160009054906101000a900473ffffffffffffffffffffffffffffffffffffffff1673ffffffffffffffffffffffffffffffffffffffff1614610c92576040517f08c379a0000000000000000000000000000000000000000000000000000000008152600401610c8990613088565b60405180910390fd5b348314610c9e57600080fd5b6000610caa6008611726565b9050610cb66008611734565b60405180608001604052803373ffffffffffffffffffffffffffffffffffffffff16815260200185815260200182815260200183815250600960003373ffffffffffffffffffffffffffffffffffffffff1673ffffffffffffffffffffffffffffffffffffffff16815260200190815260200160002060008201518160000160006101000a81548173ffffffffffffffffffffffffffffffffffffffff021916908373ffffffffffffffffffffffffffffffffffffffff16021790555060208201518160010155604082015181600201556060820151816003019080519060200190610da3929190612471565b50905050610db233848361174a565b50505050565b6000600760009054906101000a900473ffffffffffffffffffffffffffffffffffffffff16905090565b606060018054610df190612c7e565b80601f0160208091040260200160405190810160405280929190818152602001828054610e1d90612c7e565b8015610e6a5780601f10610e3f57610100808354040283529160200191610e6a565b820191906000526020600020905b815481529060010190602001808311610e4d57829003601f168201915b5050505050905090565b610e86610e7f6111a3565b8383611763565b5050565b610e9b610e956111a3565b83611264565b610eda576040517f08c379a0000000000000000000000000000000000000000000000000000000008152600401610ed190612e46565b60405180910390fd5b610ee6848484846118d0565b50505050565b6060610ef78261192c565b9050919050565b60096020528060005260406000206000915090508060000160009054906101000a900473ffffffffffffffffffffffffffffffffffffffff1690806001015490806002015490806003018054610f5390612c7e565b80601f0160208091040260200160405190810160405280929190818152602001828054610f7f90612c7e565b8015610fcc5780601f10610fa157610100808354040283529160200191610fcc565b820191906000526020600020905b815481529060010190602001808311610faf57829003601f168201915b5050505050905084565b6000600560008473ffffffffffffffffffffffffffffffffffffffff1673ffffffffffffffffffffffffffffffffffffffff16815260200190815260200160002060008373ffffffffffffffffffffffffffffffffffffffff1673ffffffffffffffffffffffffffffffffffffffff16815260200190815260200160002060009054906101000a900460ff16905092915050565b611072611560565b600073ffffffffffffffffffffffffffffffffffffffff168173ffffffffffffffffffffffffffffffffffffffff1614156110e2576040517f08c379a00000000000000000000000000000000000000000000000000000000081526004016110d99061311a565b60405180910390fd5b6110eb816115de565b50565b60007f01ffc9a7000000000000000000000000000000000000000000000000000000007bffffffffffffffffffffffffffffffffffffffffffffffffffffffff1916827bffffffffffffffffffffffffffffffffffffffffffffffffffffffff1916149050919050565b61116181611a3f565b6111a0576040517f08c379a000000000000000000000000000000000000000000000000000000000815260040161119790612eb2565b60405180910390fd5b50565b600033905090565b816004600083815260200190815260200160002060006101000a81548173ffffffffffffffffffffffffffffffffffffffff021916908373ffffffffffffffffffffffffffffffffffffffff160217905550808273ffffffffffffffffffffffffffffffffffffffff1661121e836107ea565b73ffffffffffffffffffffffffffffffffffffffff167f8c5be1e5ebec7d5bd14f71427d1e84f3dd0314c0f7b2291e5b200ac8c7c3b92560405160405180910390a45050565b600080611270836107ea565b90508073ffffffffffffffffffffffffffffffffffffffff168473ffffffffffffffffffffffffffffffffffffffff1614806112b257506112b18185610fd6565b5b806112f057508373ffffffffffffffffffffffffffffffffffffffff166112d88461060c565b73ffffffffffffffffffffffffffffffffffffffff16145b91505092915050565b8273ffffffffffffffffffffffffffffffffffffffff16611319826107ea565b73ffffffffffffffffffffffffffffffffffffffff161461136f576040517f08c379a0000000000000000000000000000000000000000000000000000000008152600401611366906131ac565b60405180910390fd5b600073ffffffffffffffffffffffffffffffffffffffff168273ffffffffffffffffffffffffffffffffffffffff1614156113df576040517f08c379a00000000000000000000000000000000000000000000000000000000081526004016113d69061323e565b60405180910390fd5b6113ea838383611aab565b6113f56000826111ab565b6001600360008573ffffffffffffffffffffffffffffffffffffffff1673ffffffffffffffffffffffffffffffffffffffff1681526020019081526020016000206000828254611445919061328d565b925050819055506001600360008473ffffffffffffffffffffffffffffffffffffffff1673ffffffffffffffffffffffffffffffffffffffff168152602001908152602001600020600082825461149c91906132c1565b92505081905550816002600083815260200190815260200160002060006101000a81548173ffffffffffffffffffffffffffffffffffffffff021916908373ffffffffffffffffffffffffffffffffffffffff160217905550808273ffffffffffffffffffffffffffffffffffffffff168473ffffffffffffffffffffffffffffffffffffffff167fddf252ad1be2c89b69c2b068fc378daa952ba7f163c4a11628f55a4df523b3ef60405160405180910390a461155b838383611b56565b505050565b6115686111a3565b73ffffffffffffffffffffffffffffffffffffffff16611586610db8565b73ffffffffffffffffffffffffffffffffffffffff16146115dc576040517f08c379a00000000000000000000000000000000000000000000000000000000081526004016115d390613363565b60405180910390fd5b565b6000600760009054906101000a900473ffffffffffffffffffffffffffffffffffffffff16905081600760006101000a81548173ffffffffffffffffffffffffffffffffffffffff021916908373ffffffffffffffffffffffffffffffffffffffff1602179055508173ffffffffffffffffffffffffffffffffffffffff168173ffffffffffffffffffffffffffffffffffffffff167f8be0079c531659141344cd1fd0a4f28419497f9722a3daafe3b4186f6b6457e060405160405180910390a35050565b3373ffffffffffffffffffffffffffffffffffffffff166116c4826107ea565b73ffffffffffffffffffffffffffffffffffffffff161461171a576040517f08c379a0000000000000000000000000000000000000000000000000000000008152600401611711906133f5565b60405180910390fd5b61172381611c54565b50565b600081600001549050919050565b6001816000016000828254019250508190555050565b6117548382611c60565b61175e8183611c7e565b505050565b8173ffffffffffffffffffffffffffffffffffffffff168373ffffffffffffffffffffffffffffffffffffffff1614156117d2576040517f08c379a00000000000000000000000000000000000000000000000000000000081526004016117c990613461565b60405180910390fd5b80600560008573ffffffffffffffffffffffffffffffffffffffff1673ffffffffffffffffffffffffffffffffffffffff16815260200190815260200160002060008473ffffffffffffffffffffffffffffffffffffffff1673ffffffffffffffffffffffffffffffffffffffff16815260200190815260200160002060006101000a81548160ff0219169083151502179055508173ffffffffffffffffffffffffffffffffffffffff168373ffffffffffffffffffffffffffffffffffffffff167f17307eab39ab6107e8899845ad3d59bd9653f200f220920489ca2b5937696c31836040516118c391906125c8565b60405180910390a3505050565b6118db8484846112f9565b6118e784848484611cf2565b611926576040517f08c379a000000000000000000000000000000000000000000000000000000000815260040161191d906134f3565b60405180910390fd5b50505050565b606061193782611158565b600060066000848152602001908152602001600020805461195790612c7e565b80601f016020809104026020016040519081016040528092919081815260200182805461198390612c7e565b80156119d05780601f106119a5576101008083540402835291602001916119d0565b820191906000526020600020905b8154815290600101906020018083116119b357829003601f168201915b5050505050905060006119e1611e89565b90506000815114156119f7578192505050611a3a565b600082511115611a2c578082604051602001611a1492919061354f565b60405160208183030381529060405292505050611a3a565b611a3584611ea0565b925050505b919050565b60008073ffffffffffffffffffffffffffffffffffffffff166002600084815260200190815260200160002060009054906101000a900473ffffffffffffffffffffffffffffffffffffffff1673ffffffffffffffffffffffffffffffffffffffff1614159050919050565b600073ffffffffffffffffffffffffffffffffffffffff168373ffffffffffffffffffffffffffffffffffffffff161480611b125750600073ffffffffffffffffffffffffffffffffffffffff168273ffffffffffffffffffffffffffffffffffffffff16145b611b51576040517f08c379a0000000000000000000000000000000000000000000000000000000008152600401611b48906135e5565b60405180910390fd5b505050565b600073ffffffffffffffffffffffffffffffffffffffff168373ffffffffffffffffffffffffffffffffffffffff161415611bd457808273ffffffffffffffffffffffffffffffffffffffff167fe9274a84b19e9428826de6bae8c48329354f8f0e73f771b97cae2d9dccd45a2760405160405180910390a3611c4f565b600073ffffffffffffffffffffffffffffffffffffffff168273ffffffffffffffffffffffffffffffffffffffff161415611c4e57808273ffffffffffffffffffffffffffffffffffffffff167fec9ab91322523c899ede7830ec9bfc992b5981cdcc27b91162fb23de5791117b60405160405180910390a35b5b505050565b611c5d81611f08565b50565b611c7a828260405180602001604052806000815250611f5b565b5050565b611c8782611a3f565b611cc6576040517f08c379a0000000000000000000000000000000000000000000000000000000008152600401611cbd90613677565b60405180910390fd5b80600660008481526020019081526020016000209080519060200190611ced929190612471565b505050565b6000611d138473ffffffffffffffffffffffffffffffffffffffff16611fb6565b15611e7c578373ffffffffffffffffffffffffffffffffffffffff1663150b7a02611d3c6111a3565b8786866040518563ffffffff1660e01b8152600401611d5e94939291906136ec565b602060405180830381600087803b158015611d7857600080fd5b505af1925050508015611da957506040513d601f19601f82011682018060405250810190611da6919061374d565b60015b611e2c573d8060008114611dd9576040519150601f19603f3d011682016040523d82523d6000602084013e611dde565b606091505b50600081511415611e24576040517f08c379a0000000000000000000000000000000000000000000000000000000008152600401611e1b906134f3565b60405180910390fd5b805181602001fd5b63150b7a0260e01b7bffffffffffffffffffffffffffffffffffffffffffffffffffffffff1916817bffffffffffffffffffffffffffffffffffffffffffffffffffffffff191614915050611e81565b600190505b949350505050565b606060405180602001604052806000815250905090565b6060611eab82611158565b6000611eb5611e89565b90506000815111611ed55760405180602001604052806000815250611f00565b80611edf84611fd9565b604051602001611ef092919061354f565b6040516020818303038152906040525b915050919050565b611f118161213a565b6000600660008381526020019081526020016000208054611f3190612c7e565b905014611f5857600660008281526020019081526020016000206000611f579190612431565b5b50565b611f658383612257565b611f726000848484611cf2565b611fb1576040517f08c379a0000000000000000000000000000000000000000000000000000000008152600401611fa8906134f3565b60405180910390fd5b505050565b6000808273ffffffffffffffffffffffffffffffffffffffff163b119050919050565b60606000821415612021576040518060400160405280600181526020017f30000000000000000000000000000000000000000000000000000000000000008152509050612135565b600082905060005b6000821461205357808061203c9061377a565b915050600a8261204c91906137f2565b9150612029565b60008167ffffffffffffffff81111561206f5761206e61287d565b5b6040519080825280601f01601f1916602001820160405280156120a15781602001600182028036833780820191505090505b5090505b6000851461212e576001826120ba919061328d565b9150600a856120c99190613823565b60306120d591906132c1565b60f81b8183815181106120eb576120ea613854565b5b60200101907effffffffffffffffffffffffffffffffffffffffffffffffffffffffffffff1916908160001a905350600a8561212791906137f2565b94506120a5565b8093505050505b919050565b6000612145826107ea565b905061215381600084611aab565b61215e6000836111ab565b6001600360008373ffffffffffffffffffffffffffffffffffffffff1673ffffffffffffffffffffffffffffffffffffffff16815260200190815260200160002060008282546121ae919061328d565b925050819055506002600083815260200190815260200160002060006101000a81549073ffffffffffffffffffffffffffffffffffffffff021916905581600073ffffffffffffffffffffffffffffffffffffffff168273ffffffffffffffffffffffffffffffffffffffff167fddf252ad1be2c89b69c2b068fc378daa952ba7f163c4a11628f55a4df523b3ef60405160405180910390a461225381600084611b56565b5050565b600073ffffffffffffffffffffffffffffffffffffffff168273ffffffffffffffffffffffffffffffffffffffff1614156122c7576040517f08c379a00000000000000000000000000000000000000000000000000000000081526004016122be906138cf565b60405180910390fd5b6122d081611a3f565b15612310576040517f08c379a00000000000000000000000000000000000000000000000000000000081526004016123079061393b565b60405180910390fd5b61231c60008383611aab565b6001600360008473ffffffffffffffffffffffffffffffffffffffff1673ffffffffffffffffffffffffffffffffffffffff168152602001908152602001600020600082825461236c91906132c1565b92505081905550816002600083815260200190815260200160002060006101000a81548173ffffffffffffffffffffffffffffffffffffffff021916908373ffffffffffffffffffffffffffffffffffffffff160217905550808273ffffffffffffffffffffffffffffffffffffffff16600073ffffffffffffffffffffffffffffffffffffffff167fddf252ad1be2c89b69c2b068fc378daa952ba7f163c4a11628f55a4df523b3ef60405160405180910390a461242d60008383611b56565b5050565b50805461243d90612c7e565b6000825580601f1061244f575061246e565b601f01602090049060005260206000209081019061246d91906124f7565b5b50565b82805461247d90612c7e565b90600052602060002090601f01602090048101928261249f57600085556124e6565b82601f106124b857805160ff19168380011785556124e6565b828001600101855582156124e6579182015b828111156124e55782518255916020019190600101906124ca565b5b5090506124f391906124f7565b5090565b5b808211156125105760008160009055506001016124f8565b5090565b6000604051905090565b600080fd5b600080fd5b60007fffffffff0000000000000000000000000000000000000000000000000000000082169050919050565b61255d81612528565b811461256857600080fd5b50565b60008135905061257a81612554565b92915050565b6000602082840312156125965761259561251e565b5b60006125a48482850161256b565b91505092915050565b60008115159050919050565b6125c2816125ad565b82525050565b60006020820190506125dd60008301846125b9565b92915050565b600081519050919050565b600082825260208201905092915050565b60005b8381101561261d578082015181840152602081019050612602565b8381111561262c576000848401525b50505050565b6000601f19601f8301169050919050565b600061264e826125e3565b61265881856125ee565b93506126688185602086016125ff565b61267181612632565b840191505092915050565b600060208201905081810360008301526126968184612643565b905092915050565b6000819050919050565b6126b18161269e565b81146126bc57600080fd5b50565b6000813590506126ce816126a8565b92915050565b6000602082840312156126ea576126e961251e565b5b60006126f8848285016126bf565b91505092915050565b600073ffffffffffffffffffffffffffffffffffffffff82169050919050565b600061272c82612701565b9050919050565b61273c81612721565b82525050565b60006020820190506127576000830184612733565b92915050565b61276681612721565b811461277157600080fd5b50565b6000813590506127838161275d565b92915050565b600080604083850312156127a05761279f61251e565b5b60006127ae85828601612774565b92505060206127bf858286016126bf565b9150509250929050565b6000806000606084860312156127e2576127e161251e565b5b60006127f086828701612774565b935050602061280186828701612774565b9250506040612812868287016126bf565b9150509250925092565b6000602082840312156128325761283161251e565b5b600061284084828501612774565b91505092915050565b6128528161269e565b82525050565b600060208201905061286d6000830184612849565b92915050565b600080fd5b600080fd5b7f4e487b7100000000000000000000000000000000000000000000000000000000600052604160045260246000fd5b6128b582612632565b810181811067ffffffffffffffff821117156128d4576128d361287d565b5b80604052505050565b60006128e7612514565b90506128f382826128ac565b919050565b600067ffffffffffffffff8211156129135761291261287d565b5b61291c82612632565b9050602081019050919050565b82818337600083830152505050565b600061294b612946846128f8565b6128dd565b90508281526020810184848401111561296757612966612878565b5b612972848285612929565b509392505050565b600082601f83011261298f5761298e612873565b5b813561299f848260208601612938565b91505092915050565b6000806000606084860312156129c1576129c061251e565b5b60006129cf868287016126bf565b935050602084013567ffffffffffffffff8111156129f0576129ef612523565b5b6129fc8682870161297a565b925050604084013567ffffffffffffffff811115612a1d57612a1c612523565b5b612a298682870161297a565b9150509250925092565b612a3c816125ad565b8114612a4757600080fd5b50565b600081359050612a5981612a33565b92915050565b60008060408385031215612a7657612a7561251e565b5b6000612a8485828601612774565b9250506020612a9585828601612a4a565b9150509250929050565b600067ffffffffffffffff821115612aba57612ab961287d565b5b612ac382612632565b9050602081019050919050565b6000612ae3612ade84612a9f565b6128dd565b905082815260208101848484011115612aff57612afe612878565b5b612b0a848285612929565b509392505050565b600082601f830112612b2757612b26612873565b5b8135612b37848260208601612ad0565b91505092915050565b60008060008060808587031215612b5a57612b5961251e565b5b6000612b6887828801612774565b9450506020612b7987828801612774565b9350506040612b8a878288016126bf565b925050606085013567ffffffffffffffff811115612bab57612baa612523565b5b612bb787828801612b12565b91505092959194509250565b6000608082019050612bd86000830187612733565b612be56020830186612849565b612bf26040830185612849565b8181036060830152612c048184612643565b905095945050505050565b60008060408385031215612c2657612c2561251e565b5b6000612c3485828601612774565b9250506020612c4585828601612774565b9150509250929050565b7f4e487b7100000000000000000000000000000000000000000000000000000000600052602260045260246000fd5b60006002820490506001821680612c9657607f821691505b60208210811415612caa57612ca9612c4f565b5b50919050565b7f4552433732313a20617070726f76616c20746f2063757272656e74206f776e6560008201527f7200000000000000000000000000000000000000000000000000000000000000602082015250565b6000612d0c6021836125ee565b9150612d1782612cb0565b604082019050919050565b60006020820190508181036000830152612d3b81612cff565b9050919050565b7f4552433732313a20617070726f76652063616c6c6572206973206e6f7420746f60008201527f6b656e206f776e6572206e6f7220617070726f76656420666f7220616c6c0000602082015250565b6000612d9e603e836125ee565b9150612da982612d42565b604082019050919050565b60006020820190508181036000830152612dcd81612d91565b9050919050565b7f4552433732313a2063616c6c6572206973206e6f7420746f6b656e206f776e6560008201527f72206e6f7220617070726f766564000000000000000000000000000000000000602082015250565b6000612e30602e836125ee565b9150612e3b82612dd4565b604082019050919050565b60006020820190508181036000830152612e5f81612e23565b9050919050565b7f4552433732313a20696e76616c696420746f6b656e2049440000000000000000600082015250565b6000612e9c6018836125ee565b9150612ea782612e66565b602082019050919050565b60006020820190508181036000830152612ecb81612e8f565b9050919050565b7f4552433732313a2061646472657373207a65726f206973206e6f74206120766160008201527f6c6964206f776e65720000000000000000000000000000000000000000000000602082015250565b6000612f2e6029836125ee565b9150612f3982612ed2565b604082019050919050565b60006020820190508181036000830152612f5d81612f21565b9050919050565b7f4f6e6c79206f776e65722063616e20756e6c6f636b0000000000000000000000600082015250565b6000612f9a6015836125ee565b9150612fa582612f64565b602082019050919050565b60006020820190508181036000830152612fc981612f8d565b9050919050565b7f596f7520646f6e2774206861766520616e7920746f6b656e204c6f636b656400600082015250565b6000613006601f836125ee565b915061301182612fd0565b602082019050919050565b6000602082019050818103600083015261303581612ff9565b9050919050565b7f616c7265616479204c6f636b6564000000000000000000000000000000000000600082015250565b6000613072600e836125ee565b915061307d8261303c565b602082019050919050565b600060208201905081810360008301526130a181613065565b9050919050565b7f4f776e61626c653a206e6577206f776e657220697320746865207a65726f206160008201527f6464726573730000000000000000000000000000000000000000000000000000602082015250565b60006131046026836125ee565b915061310f826130a8565b604082019050919050565b60006020820190508181036000830152613133816130f7565b9050919050565b7f4552433732313a207472616e736665722066726f6d20696e636f72726563742060008201527f6f776e6572000000000000000000000000000000000000000000000000000000602082015250565b60006131966025836125ee565b91506131a18261313a565b604082019050919050565b600060208201905081810360008301526131c581613189565b9050919050565b7f4552433732313a207472616e7366657220746f20746865207a65726f2061646460008201527f7265737300000000000000000000000000000000000000000000000000000000602082015250565b60006132286024836125ee565b9150613233826131cc565b604082019050919050565b600060208201905081810360008301526132578161321b565b9050919050565b7f4e487b7100000000000000000000000000000000000000000000000000000000600052601160045260246000fd5b60006132988261269e565b91506132a38361269e565b9250828210156132b6576132b561325e565b5b828203905092915050565b60006132cc8261269e565b91506132d78361269e565b9250827fffffffffffffffffffffffffffffffffffffffffffffffffffffffffffffffff0382111561330c5761330b61325e565b5b828201905092915050565b7f4f776e61626c653a2063616c6c6572206973206e6f7420746865206f776e6572600082015250565b600061334d6020836125ee565b915061335882613317565b602082019050919050565b6000602082019050818103600083015261337c81613340565b9050919050565b7f4f6e6c79206f776e6572206f662074686520636572746966696361746520636160008201527f6e206275726e2069740000000000000000000000000000000000000000000000602082015250565b60006133df6029836125ee565b91506133ea82613383565b604082019050919050565b6000602082019050818103600083015261340e816133d2565b9050919050565b7f4552433732313a20617070726f766520746f2063616c6c657200000000000000600082015250565b600061344b6019836125ee565b915061345682613415565b602082019050919050565b6000602082019050818103600083015261347a8161343e565b9050919050565b7f4552433732313a207472616e7366657220746f206e6f6e20455243373231526560008201527f63656976657220696d706c656d656e7465720000000000000000000000000000602082015250565b60006134dd6032836125ee565b91506134e882613481565b604082019050919050565b6000602082019050818103600083015261350c816134d0565b9050919050565b600081905092915050565b6000613529826125e3565b6135338185613513565b93506135438185602086016125ff565b80840191505092915050565b600061355b828561351e565b9150613567828461351e565b91508190509392505050565b7f4e6f7420616c6c6f77656420746f207472616e7366657220636572746966696360008201527f6174650000000000000000000000000000000000000000000000000000000000602082015250565b60006135cf6023836125ee565b91506135da82613573565b604082019050919050565b600060208201905081810360008301526135fe816135c2565b9050919050565b7f45524337323155524953746f726167653a2055524920736574206f66206e6f6e60008201527f6578697374656e7420746f6b656e000000000000000000000000000000000000602082015250565b6000613661602e836125ee565b915061366c82613605565b604082019050919050565b6000602082019050818103600083015261369081613654565b9050919050565b600081519050919050565b600082825260208201905092915050565b60006136be82613697565b6136c881856136a2565b93506136d88185602086016125ff565b6136e181612632565b840191505092915050565b60006080820190506137016000830187612733565b61370e6020830186612733565b61371b6040830185612849565b818103606083015261372d81846136b3565b905095945050505050565b60008151905061374781612554565b92915050565b6000602082840312156137635761376261251e565b5b600061377184828501613738565b91505092915050565b60006137858261269e565b91507fffffffffffffffffffffffffffffffffffffffffffffffffffffffffffffffff8214156137b8576137b761325e565b5b600182019050919050565b7f4e487b7100000000000000000000000000000000000000000000000000000000600052601260045260246000fd5b60006137fd8261269e565b91506138088361269e565b925082613818576138176137c3565b5b828204905092915050565b600061382e8261269e565b91506138398361269e565b925082613849576138486137c3565b5b828206905092915050565b7f4e487b7100000000000000000000000000000000000000000000000000000000600052603260045260246000fd5b7f4552433732313a206d696e7420746f20746865207a65726f2061646472657373600082015250565b60006138b96020836125ee565b91506138c482613883565b602082019050919050565b600060208201905081810360008301526138e8816138ac565b9050919050565b7f4552433732313a20746f6b656e20616c7265616479206d696e74656400000000600082015250565b6000613925601c836125ee565b9150613930826138ef565b602082019050919050565b6000602082019050818103600083015261395481613918565b905091905056fea2646970667358221220494ff81ec367547a9e781e6d0bff83bbf45d664799f2d448b693fe07a8bdb1cc64736f6c63430008090033",
  "linkReferences": {},
  "deployedLinkReferences": {}
}